{
  "contractName": "Voting",
  "abi": [
    {
      "inputs": [
        {
          "internalType": "string[]",
          "name": "candidateNames",
          "type": "string[]"
        }
      ],
      "stateMutability": "nonpayable",
      "type": "constructor"
    },
    {
      "inputs": [
        {
          "internalType": "uint256",
          "name": "",
          "type": "uint256"
        }
      ],
      "name": "candidates",
      "outputs": [
        {
          "internalType": "string",
          "name": "name",
          "type": "string"
        },
        {
          "internalType": "uint256",
          "name": "voteCount",
          "type": "uint256"
        }
      ],
      "stateMutability": "view",
      "type": "function",
      "constant": true
    },
    {
      "inputs": [],
      "name": "owner",
      "outputs": [
        {
          "internalType": "address",
          "name": "",
          "type": "address"
        }
      ],
      "stateMutability": "view",
      "type": "function",
      "constant": true
    },
    {
      "inputs": [
        {
          "internalType": "address",
          "name": "",
          "type": "address"
        }
      ],
      "name": "voters",
      "outputs": [
        {
          "internalType": "bool",
          "name": "voted",
          "type": "bool"
        },
        {
          "internalType": "uint256",
          "name": "vote",
          "type": "uint256"
        }
      ],
      "stateMutability": "view",
      "type": "function",
      "constant": true
    },
    {
      "inputs": [
        {
          "internalType": "uint256",
          "name": "candidateIndex",
          "type": "uint256"
        }
      ],
      "name": "vote",
      "outputs": [],
      "stateMutability": "nonpayable",
      "type": "function"
    },
    {
      "inputs": [],
      "name": "getCandidates",
      "outputs": [
        {
          "components": [
            {
              "internalType": "string",
              "name": "name",
              "type": "string"
            },
            {
              "internalType": "uint256",
              "name": "voteCount",
              "type": "uint256"
            }
          ],
          "internalType": "struct Voting.Candidate[]",
          "name": "",
          "type": "tuple[]"
        }
      ],
      "stateMutability": "view",
      "type": "function",
      "constant": true
    }
  ],
  "bytecode": "0x608060405234801562000010575f80fd5b506040516200116e3803806200116e833981810160405281019062000036919062000398565b335f806101000a81548173ffffffffffffffffffffffffffffffffffffffff021916908373ffffffffffffffffffffffffffffffffffffffff1602179055505f5b8151811015620001135760026040518060400160405280848481518110620000a457620000a3620003e7565b5b602002602001015181526020015f815250908060018154018082558091505060019003905f5260205f2090600202015f909190919091505f820151815f019081620000f091906200064b565b5060208201518160010155505080806200010a906200075c565b91505062000077565b5050620007a8565b5f604051905090565b5f80fd5b5f80fd5b5f80fd5b5f601f19601f8301169050919050565b7f4e487b71000000000000000000000000000000000000000000000000000000005f52604160045260245ffd5b620001788262000130565b810181811067ffffffffffffffff821117156200019a576200019962000140565b5b80604052505050565b5f620001ae6200011b565b9050620001bc82826200016d565b919050565b5f67ffffffffffffffff821115620001de57620001dd62000140565b5b602082029050602081019050919050565b5f80fd5b5f80fd5b5f67ffffffffffffffff82111562000214576200021362000140565b5b6200021f8262000130565b9050602081019050919050565b5f5b838110156200024b5780820151818401526020810190506200022e565b5f8484015250505050565b5f6200026c6200026684620001f7565b620001a3565b9050828152602081018484840111156200028b576200028a620001f3565b5b620002988482856200022c565b509392505050565b5f82601f830112620002b757620002b66200012c565b5b8151620002c984826020860162000256565b91505092915050565b5f620002e8620002e284620001c1565b620001a3565b905080838252602082019050602084028301858111156200030e576200030d620001ef565b5b835b818110156200035c57805167ffffffffffffffff8111156200033757620003366200012c565b5b808601620003468982620002a0565b8552602085019450505060208101905062000310565b5050509392505050565b5f82601f8301126200037d576200037c6200012c565b5b81516200038f848260208601620002d2565b91505092915050565b5f60208284031215620003b057620003af62000124565b5b5f82015167ffffffffffffffff811115620003d057620003cf62000128565b5b620003de8482850162000366565b91505092915050565b7f4e487b71000000000000000000000000000000000000000000000000000000005f52603260045260245ffd5b5f81519050919050565b7f4e487b71000000000000000000000000000000000000000000000000000000005f52602260045260245ffd5b5f60028204905060018216806200046357607f821691505b6020821081036200047957620004786200041e565b5b50919050565b5f819050815f5260205f209050919050565b5f6020601f8301049050919050565b5f82821b905092915050565b5f60088302620004dd7fffffffffffffffffffffffffffffffffffffffffffffffffffffffffffffffff82620004a0565b620004e98683620004a0565b95508019841693508086168417925050509392505050565b5f819050919050565b5f819050919050565b5f620005336200052d620005278462000501565b6200050a565b62000501565b9050919050565b5f819050919050565b6200054e8362000513565b620005666200055d826200053a565b848454620004ac565b825550505050565b5f90565b6200057c6200056e565b6200058981848462000543565b505050565b5b81811015620005b057620005a45f8262000572565b6001810190506200058f565b5050565b601f821115620005ff57620005c9816200047f565b620005d48462000491565b81016020851015620005e4578190505b620005fc620005f38562000491565b8301826200058e565b50505b505050565b5f82821c905092915050565b5f620006215f198460080262000604565b1980831691505092915050565b5f6200063b838362000610565b9150826002028217905092915050565b620006568262000414565b67ffffffffffffffff81111562000672576200067162000140565b5b6200067e82546200044b565b6200068b828285620005b4565b5f60209050601f831160018114620006c1575f8415620006ac578287015190505b620006b885826200062e565b86555062000727565b601f198416620006d1866200047f565b5f5b82811015620006fa57848901518255600182019150602085019450602081019050620006d3565b868310156200071a578489015162000716601f89168262000610565b8355505b6001600288020188555050505b505050505050565b7f4e487b71000000000000000000000000000000000000000000000000000000005f52601160045260245ffd5b5f620007688262000501565b91507fffffffffffffffffffffffffffffffffffffffffffffffffffffffffffffffff82036200079d576200079c6200072f565b5b600182019050919050565b6109b880620007b65f395ff3fe608060405234801561000f575f80fd5b5060043610610055575f3560e01c80630121b93f1461005957806306a49fce146100755780633477ee2e146100935780638da5cb5b146100c4578063a3ec138d146100e2575b5f80fd5b610073600480360381019061006e919061047c565b610113565b005b61007d61024c565b60405161008a9190610635565b60405180910390f35b6100ad60048036038101906100a8919061047c565b610341565b6040516100bb9291906106ac565b60405180910390f35b6100cc6103f6565b6040516100d99190610719565b60405180910390f35b6100fc60048036038101906100f7919061075c565b610419565b60405161010a9291906107a1565b60405180910390f35b5f60015f3373ffffffffffffffffffffffffffffffffffffffff1673ffffffffffffffffffffffffffffffffffffffff1681526020019081526020015f209050805f015f9054906101000a900460ff16156101a3576040517f08c379a000000000000000000000000000000000000000000000000000000000815260040161019a90610812565b60405180910390fd5b60028054905082106101ea576040517f08c379a00000000000000000000000000000000000000000000000000000000081526004016101e19061087a565b60405180910390fd5b6001815f015f6101000a81548160ff02191690831515021790555081816001018190555060016002838154811061022457610223610898565b5b905f5260205f2090600202016001015f82825461024191906108f2565b925050819055505050565b60606002805480602002602001604051908101604052809291908181526020015f905b82821015610338578382905f5260205f2090600202016040518060400160405290815f8201805461029f90610952565b80601f01602080910402602001604051908101604052809291908181526020018280546102cb90610952565b80156103165780601f106102ed57610100808354040283529160200191610316565b820191905f5260205f20905b8154815290600101906020018083116102f957829003601f168201915b505050505081526020016001820154815250508152602001906001019061026f565b50505050905090565b60028181548110610350575f80fd5b905f5260205f2090600202015f91509050805f01805461036f90610952565b80601f016020809104026020016040519081016040528092919081815260200182805461039b90610952565b80156103e65780601f106103bd576101008083540402835291602001916103e6565b820191905f5260205f20905b8154815290600101906020018083116103c957829003601f168201915b5050505050908060010154905082565b5f8054906101000a900473ffffffffffffffffffffffffffffffffffffffff1681565b6001602052805f5260405f205f91509050805f015f9054906101000a900460ff16908060010154905082565b5f80fd5b5f819050919050565b61045b81610449565b8114610465575f80fd5b50565b5f8135905061047681610452565b92915050565b5f6020828403121561049157610490610445565b5b5f61049e84828501610468565b91505092915050565b5f81519050919050565b5f82825260208201905092915050565b5f819050602082019050919050565b5f81519050919050565b5f82825260208201905092915050565b5f5b838110156105075780820151818401526020810190506104ec565b5f8484015250505050565b5f601f19601f8301169050919050565b5f61052c826104d0565b61053681856104da565b93506105468185602086016104ea565b61054f81610512565b840191505092915050565b61056381610449565b82525050565b5f604083015f8301518482035f8601526105838282610522565b9150506020830151610598602086018261055a565b508091505092915050565b5f6105ae8383610569565b905092915050565b5f602082019050919050565b5f6105cc826104a7565b6105d681856104b1565b9350836020820285016105e8856104c1565b805f5b85811015610623578484038952815161060485826105a3565b945061060f836105b6565b925060208a019950506001810190506105eb565b50829750879550505050505092915050565b5f6020820190508181035f83015261064d81846105c2565b905092915050565b5f82825260208201905092915050565b5f61066f826104d0565b6106798185610655565b93506106898185602086016104ea565b61069281610512565b840191505092915050565b6106a681610449565b82525050565b5f6040820190508181035f8301526106c48185610665565b90506106d3602083018461069d565b9392505050565b5f73ffffffffffffffffffffffffffffffffffffffff82169050919050565b5f610703826106da565b9050919050565b610713816106f9565b82525050565b5f60208201905061072c5f83018461070a565b92915050565b61073b816106f9565b8114610745575f80fd5b50565b5f8135905061075681610732565b92915050565b5f6020828403121561077157610770610445565b5b5f61077e84828501610748565b91505092915050565b5f8115159050919050565b61079b81610787565b82525050565b5f6040820190506107b45f830185610792565b6107c1602083018461069d565b9392505050565b7f416c726561647920766f7465642e0000000000000000000000000000000000005f82015250565b5f6107fc600e83610655565b9150610807826107c8565b602082019050919050565b5f6020820190508181035f830152610829816107f0565b9050919050565b7f496e76616c69642063616e64696461746520696e6465782e00000000000000005f82015250565b5f610864601883610655565b915061086f82610830565b602082019050919050565b5f6020820190508181035f83015261089181610858565b9050919050565b7f4e487b71000000000000000000000000000000000000000000000000000000005f52603260045260245ffd5b7f4e487b71000000000000000000000000000000000000000000000000000000005f52601160045260245ffd5b5f6108fc82610449565b915061090783610449565b925082820190508082111561091f5761091e6108c5565b5b92915050565b7f4e487b71000000000000000000000000000000000000000000000000000000005f52602260045260245ffd5b5f600282049050600182168061096957607f821691505b60208210810361097c5761097b610925565b5b5091905056fea26469706673582212203857c5db0b24c3e20218ba80c7d0d5ee1d6fd703080db9803f416ec204e0ec4264736f6c63430008150033",
  "immutableReferences": {},
  "source": "// SPDX-License-Identifier: MIT\r\npragma solidity ^0.8.0;\r\n\r\ncontract Voting {\r\n    struct Voter {\r\n        bool voted;\r\n        uint vote;\r\n    }\r\n    \r\n    struct Candidate {\r\n        string name;\r\n        uint voteCount;\r\n    }\r\n\r\n    address public owner;\r\n    mapping(address => Voter) public voters;\r\n    Candidate[] public candidates;\r\n\r\n    modifier onlyOwner() {\r\n        require(msg.sender == owner, \"Only owner can call this function.\");\r\n        _;\r\n    }\r\n\r\n    constructor(string[] memory candidateNames) {\r\n        owner = msg.sender;\r\n        for (uint i = 0; i < candidateNames.length; i++) {\r\n            candidates.push(Candidate({\r\n                name: candidateNames[i],\r\n                voteCount: 0\r\n            }));\r\n        }\r\n    }\r\n\r\n    function vote(uint candidateIndex) public {\r\n        Voter storage sender = voters[msg.sender];\r\n        require(!sender.voted, \"Already voted.\");\r\n        require(candidateIndex < candidates.length, \"Invalid candidate index.\");\r\n\r\n        sender.voted = true;\r\n        sender.vote = candidateIndex;\r\n\r\n        candidates[candidateIndex].voteCount += 1;\r\n    }\r\n\r\n    function getCandidates() public view returns (Candidate[] memory) {\r\n        return candidates;\r\n    }\r\n}\r\n",
  "sourcePath": "C:\\GithubProjects\\blockchain\\VotingSystem\\contracts\\Voting.sol",
  "compiler": {
    "name": "solc",
    "version": "0.8.21+commit.d9974bed.Emscripten.clang"
  },
  "schemaVersion": "3.4.16",
  "updatedAt": "2024-05-25T17:26:28.318Z",
  "networkType": "ethereum",
  "devdoc": {
    "kind": "dev",
    "methods": {},
    "version": 1
  },
  "userdoc": {
    "kind": "user",
    "methods": {},
    "version": 1
  }
}